:020000040800F2
:10000000400800209D8900082117000823170008D8
:10001000271700082B1700082F1700080000000002
:10002000000000000000000000000000331700087E
:1000300035170008000000003717000839170008BE
:10004000B7890008B7890008B7890008B789000890
:10005000B7890008B7890008B7890008B789000880
:10006000B7890008B7890008C51D0008B7890008CE
:10007000B7890008B7890008B7890008B789000860
:10008000B7890008B7890008B7890008B789000850
:10009000B7890008B7890008B7890008B789000840
:1000A000B78900083F760008B7890008AF760008D6
:1000B000B7890008191F00088D1F0008B7890008BC
:1000C000B7890008B7890008B7890008B789000810
:1000D000B7890008FB880008B7890008B7890008BD
:1000E000B7890008B7890008B7890008B7890008F0
:1000F000B7890008B7890008B7890008B7890008E0
:10010000B7890008B7890008B7890008B7890008CF
:10011000B7890008B7890008B7890008B7890008BF
:10012000B7890008B7890008B7890008B7890008AF
:10013000B7890008B7890008B7890008B78900089F
:10014000B7890008B7890008B7890008B78900088F
:10015000B7890008B7890008B7890008B78900087F
:10016000B7890008B7890008B7890008B78900086F
:10017000B7890008B7890008B7890008B78900085F
:10018000B7890008B789000800F002F800F05BF8B2
:100190000AA090E8000C82448344AAF10107DA45E2
:1001A00001D100F050F8AFF2090EBAE80F0013F0D9
:1001B000010F18BFFB1A43F001031847C4F40000F5
:1001C000E4F40000103A24BF78C878C1FAD8520786
:1001D00024BF30C830C144BF04680C6070470000C1
:1001E0000023002400250026103A28BF78C1FBD840
:1001F000520728BF30C148BF0B60704766290DF019
:10020000108564290AF0448578290AF07D856329E0
:100210000BF0FB8073290BF00081002070471FB5A5
:100220000DF0F5FC0BF0B6F90400002000210CF0F5
:100230002BFE401C6060002000210CF00FFEE060EF
:100240001FBD10B510BD0BF03CFB1146FFF7E7FFDB
:1002500001F01FFA0BF0BAFD03B4FFF7F2FF03BC85
:1002600008F0ECFA10B52DED048B88B0FAA103C9A3
:10027000CDE906010024002001F040FD0446002CD9
:1002800075D0012C74D0022C73D0032C72D0042CA6
:1002900071D1F34A07CA03AB07C3F2480078442878
:1002A0006AD049286AD0502826D0562823D1EE4853
:1002B0000078401CEC4908704FF6FF701823AE22FE
:1002C00008210090962006F061FAE74800780321A3
:1002D000E6A31022CDE900100821962006F04EFE7C
:1002E000E1480278E1A1E2480AF094FC0422E049E6
:1002F000002007F024F9B7E0DE4800680DF016FC96
:1003000041EC190B9FEDDC0B53EC102B0CF004FEB1
:1003100041EC180B0CF0CEFDD64908600846006889
:100320000DF004FC41EC180B53EC182BD4A103A8DE
:100330000AF070FC052203A9042007F000F94FF62B
:10034000FF703C23402230210090142006F01EFA5A
:10035000C84800680DF0EAFB41EC180B8DED008BEE
:10036000C7A310223021142006F008FE7CE0DBE158
:100370007CE088E08AE1CFE13BE0FFE7C14800682C
:100380000DF0D4FB41EC190B9FEDBB0B53EC102B84
:100390000CF0C2FD41EC180B0CF08CFDB949086063
:1003A000084600680DF0C2FB41EC180B53EC182B0B
:1003B000B3A103A80AF02EFC052203A90A2007F026
:1003C000BEF84FF6FF703C237C2230210090502075
:1003D00006F0DCF9AB4800680DF0A8FB41EC180B07
:1003E0008DED008BA6A310223021502006F0C6FD13
:1003F0003AE0A54800680DF099FB41EC190B9FED20
:100400009E0B53EC102B0CF087FD41EC180B0CF0FD
:1004100051FD9D490860084600680DF087FB41ECDE
:10042000180B53EC182B96A103A80AF0F3FB052236
:1004300003A9102007F083F84FF6FF703C23B42285
:10044000302100908C2006F0A1F98F4800680DF053
:100450006DFB41EC180B8DED008B89A31022302130
:100460008C2006F08BFD00BF00BF55E130207D4998
:1004700008704FF6FF70302361221721009054203E
:1004800006F084F948E1764A0C3207CA03AB07C389
:100490007448007844287CD0492863D0502826D05E
:1004A000562823D170480078401E6F4908704FF6D7
:1004B000FF701823AE2208210090962006F066F9FE
:1004C00069480078032169A31022CDE900100821B2
:1004D000962006F053FD6448027864A164480AF04F
:1004E00099FB04226249002007F029F8B2E0614834
:1004F00000680DF01BFB41EC190B9FED5F0B53ECFB
:10050000102B0DF029FA41EC180B0CF0D3FC5949D3
:100510000860084600680DF009FB41EC180B53EC2D
:10052000182B57A103A80AF075FB052203A9042084
:1005300007F005F84FF6FF703C2340223021009071
:10054000142006F023F94B4800680DF0EFFA41EC57
:10055000180B8DED008B4AA310223021142006F0D9
:100560000DFD77E0474800680DF0E0FA41EC190B0B
:100570009FED410B53EC102B0DF0EEF941EC180BF5
:100580000CF098FC3F490860084600680DF0CEFA70
:1005900000E024E041EC180B53EC182B38A103A821
:1005A0000AF038FB052203A90A2006F0C8FF4FF61F
:1005B000FF703C237C2230210090502006F0E6F8AA
:1005C000304800680DF0B2FA41EC180B8DED008B4D
:1005D0002BA310223021502006F0D0FC3AE02A480C
:1005E00000680DF0A3FA41EC190B9FED230B53ECBF
:1005F000102B0DF0B1F941EC180B0CF05BFC22490B
:100600000860084600680DF091FA41EC180B53ECB5
:10061000182B1BA103A80AF0FDFA052203A910203C
:1006200006F08DFF4FF6FF703C23B422302100907E
:100630008C2006F0ABF8144800680DF077FA41EC16
:10064000180B8DED008B0EA3102230218C2006F0AC
:1006500095FC00BF00BF5FE03056415049440000A8
:1006600024DD0008050000200000002025640000B3
:10067000010000204C0000207B14AE47E17A843F4B
:10068000256600005000002054000020F648007845
:10069000401CF549087006A80978405CF3490870C9
:1006A00008460078442829D049281BD050280DD06E
:1006B00056282FD14FF47840002118235622CDE937
:1006C00000101946552006F08DFA23E04FF47840CB
:1006D000002118235022CDE900101946552006F0BC
:1006E00081FA17E04FF47840002118234922CDE920
:1006F00000101946552006F075FA0BE04FF47840CB
:10070000002118234422CDE900101946552006F097
:1007100069FA00BF00BF00BF00BFD548007873284A
:1007200002DD7320D249087008B0BDEC048B10BD07
:1007300000B52DED048B85B0CE4841680020884778
:10074000CC4890F8200000F0800000287ED0C948F6
:100750008089C9490988884279DAC648C08AC64969
:1007600049888842F8DAC3488089BE2870DDC148CC
:10077000C08A46286CDABF48C08A002869DDBD48B7
:10078000C08A1A2865DABD4A07CA02AB07C3B74850
:10079000007844287DD049286CD0502828D056288D
:1007A00025D1B3480078401CB14908704FF6FF705E
:1007B0001823AE2208210090962005F0E7FFAC48F0
:1007C00000780321AFF25C131022CDE9001008215C
:1007D000962006F0D3FBA6480278AFF27011A84825
:1007E0000AF018FA0422A649002006F0A8FEBDE08F
:1007F000A44800680DF09AF941EC190B1FED620B4B
:1008000053EC102B0CF088FB41EC180B0CF052FB56
:100810009C490860084600680DF088F941EC180B07
:1008200053EC182BAFF2A81102A80AF0F3F9052235
:1008300002A9042006F083FE4FF6FF703C234022FD
:1008400030210090142005F0A1FF03E03CE2B1E16B
:10085000B1E18DE08B4800680DF068F941EC180BB0
:100860008DED008BAFF2E81310223021142006F03A
:1008700085FB7BE0844800680DF058F941EC190BCA
:100880001FED830B53EC102B0CF046FB41EC180BC7
:1008900000E02EE00CF00EFB7B4908600846006883
:1008A0000DF044F941EC180B53EC182BAFF230214A
:1008B00002A80AF0AFF9052202A90A2006F03FFEBD
:1008C0004FF6FF703C237C2230210090502005F031
:1008D0005DFF6D4800680DF029F941EC180B8DEDB6
:1008E000008BAFF2642310223021502006F046FB2B
:1008F0003CE0664800680DF019F941EC190B1FED5A
:10090000A20B53EC102B0CF007FB41EC180B0CF076
:10091000D1FA5E490860084600680DF007F941EC1D
:10092000180B53EC182BAFF2A82102A80AF072F9A9
:10093000052202A9102006F002FE4FF6FF703C23AC
:10094000B422302100908C2005F020FF4F48006831
:100950000DF0ECF841EC180B8DED008BAFF2E023BD
:10096000102230218C2006F009FB00BF00BFA4E15B
:100970004048C08A1A2876DD3E48C08A302872DA9C
:100980003E4A0C3207CA02AB07C3384800784428F5
:100990007ED049287ED0502828D0562825D13448EA
:1009A0000078401E324908704FF6FF701823AE22BF
:1009B00008210090962005F0E9FE2D4800780321DB
:1009C000AFF258331022CDE900100821962006F02E
:1009D000D5FA27480278AFF26C3129480AF01AF9A3
:1009E00004222749002006F0AAFDCDE02548006832
:1009F0000DF09CF841EC190B1FEDE10B53EC102BA3
:100A00000CF0AAFF41EC180B0CF054FA1D490860D9
:100A1000084600680DF08AF841EC180B53EC182BCF
:100A2000AFF2A43102A80AF0F5F8052202A90420C9
:100A300006F085FD4FF6FF703C23402230210090E8
:100A4000142005F0A3FE0F4800680DF06FF841EC8C
:100A5000180B8DED008BAFF2D8331022302114200B
:100A600006F08CFA90E091E01A00002005000020CA
:100A70000000002080000020E80000203CDD00088D
:100A8000010000204C0000205000002054000020F5
:100A90003DE0FFE7FE4800680DF048F841EC190B17
:100AA0009FEDFC0B53EC102B0CF056FF41EC180B98
:100AB0000CF000FAF6490860084600680DF036F8B8
:100AC00041EC180B53EC182BAFF24C4102A80AF082
:100AD000A1F8052202A90A2006F031FD4FF6FF70A9
:100AE0003C237C2230210090502005F04FFEE84846
:100AF00000680DF01BF841EC180B8DED008BAFF288
:100B0000804310223021502006F038FA3CE0E348C0
:100B100000680DF00BF841EC190B9FEDDE0B53EC68
:100B2000102B0CF019FF41EC180B0CF0C3F9DB494A
:100B30000860084600680CF0F9FF41EC180B53EC14
:100B4000182BAFF2C44102A80AF064F8052202A9EA
:100B5000102006F0F4FC4FF6FF703C23B422302145
:100B600000908C2005F012FECC4800680CF0DEFFEF
:100B700041EC180B8DED008BAFF2FC4310223021BD
:100B80008C2006F0FBF900BF00BF96E0C448C08A85
:100B900030280FDDC248C08A46280BDA3020C14910
:100BA00008704FF6FF703023612217210090542007
:100BB00005F0ECFD81E0BA488089822831DDB84833
:100BC000C08A30282DDAB648C08A002812DDB44821
:100BD000C08A1A280EDA5620B24908704FF47840BD
:100BE000002118235622CDE900101946552005F0A2
:100BF000F9FF62E0AA48C08A1A285EDDA848C08AC8
:100C000030285ADA4120A74908704FF47840002173
:100C100018234122CDE900101946552005F0E2FFC6
:100C20004BE09F48C08A302847DD9D48C08A46284F
:100C300043DA9B488089002812DD994880893C2846
:100C40000EDA5020974908704FF47840002118239D
:100C50005022CDE900101946552005F0C3FF2CE0C5
:100C60008F4880893C2812DD8D4880897D280EDAE6
:100C700049208C4908704FF47840002118234922FC
:100C8000CDE900101946552005F0ACFF15E0844869
:100C900080897D2811DD82488089BE280DDA4420B4
:100CA000804908704FF47840002118234422CDE990
:100CB00000101946552005F095FF7B4800787328F1
:100CC00002DD73207849087005B0BDEC048B00BDCF
:100CD0001CB506F07BFD75490978884272D006F094
:100CE00075FD622844D00EDC382867D006DC102859
:100CF00060D0182856D0302840D14FE0422866D026
:100D00005A283BD15FE0A2280CD006DC682839D0F5
:100D10007A284BD0982831D138E0A8281FD0B028A5
:100D20002CD137E062480078C0436149087008461A
:100D3000007830B15C4800785E49087000205A495C
:100D400008705948007830B95948007818B959489E
:100D5000007855490870A220544908703BE0524879
:100D60000078401E50490870A8205049087032E0B1
:100D70004D480078401C4C4908702CE001204B493C
:100D8000087028E00A204849087024E014204649E9
:100D9000087020E01E20444908701CE028204249C9
:100DA000087018E032204049087014E03C203E49A9
:100DB000087010E046203C4908700CE050203A4989
:100DC000087008E029E05A203749087003E06420E1
:100DD0003549087000BF00BF33480278AFF2747124
:100DE000354809F017FF04223349002006F0A7FB1D
:100DF0004FF6FF701823AE2208210090962005F0D0
:100E0000C5FC294800780321AFF2A0731022CDE978
:100E100000100821962006F0B1F81CBD30B52DED6C
:100E2000068B83B0002425480068401C23490860D5
:100E300008460068401C0860214800680CF030FB40
:100E400041EC1A0B9FED1F0B53EC102B0CF078FBB1
:100E500041EC190B9FED1D0B53EC102B0CF0A4FC77
:100E600041EC180B0CF0D8FA1A4908601A48D0ED7A
:100E7000000A9FED1A0AB0EE001A00EEC10ABCEE9D
:100E8000C00A174880ED000A0C480068D02829E005
:100E9000500000207B14AE47E17A843F54000020CC
:100EA0008000002005000020000000201B00002022
:100EB0001D0000201C000020010000202000002058
:100EC00064000020713D0AD7A370E53F00000000D8
:100ED00000007440240000206C0000200000A043AB
:100EE0003000002003D91720FE49086044E0FE4D81
:100EF0002D88ABB2FB4D2D88AAB2FC4D2D88A9B22E
:100F0000FB4D2D88A8B205F0CDFC4FF47840F94D8B
:100F100000902D88ABB2F34D2D88AAB2F64D2D88E6
:100F2000A9B2F34D2D88A8B205F014FD4FF4784016
:100F3000F04D00902D886D1CABB2EA4D2D88AAB201
:100F4000ED4D2D886D1CA9B2E94D2D88A8B205F094
:100F500001FD4FF47840E74D00902D886D1EABB237
:100F6000E04D2D88AAB2E44D2D886D1EA9B2E04D4A
:100F70002D88A8B205F0EEFCDA480068DC4908606C
:100F8000D9480068D9490860DA480068DA49086039
:100F90004FF6FF70D34900900988C91C8AB2D14925
:100FA000098888B240F23F13502105F0EFFB4FF65D
:100FB000FF701B233E22082100901E2005F0E6FB57
:100FC000CE4890ED000ABDEEC00A032000908DEDE2
:100FD000010AAFF66813102208211E2005F0CEFF8B
:100FE0004FF6FF702F233E221C2100901E2005F09B
:100FF000CDFBC34800680321AFF690131022CDE962
:1010000000101C211E2005F0B9FF142007F0F6FB8C
:1010100003B0BDEC068B30BD70B52DED048B0446DE
:1010200020460CF026FA41EC190B9FEDB60B53EC61
:10103000102B0CF085FA41EC180B0CF0BDF90546AD
:101040001E20B249086008460168B14808F045FF13
:101050001FE0FFF7E3FEAF48007800EE100AB8EE9D
:10106000400A00F08DFCA948D0ED000AF8EE600AB5
:1010700030EE200ABCEEC00A80ED000A0068642849
:1010800002D36320A1490860A0480168A04808F085
:1010900024FFA5F16400A04909688842D9DA00213B
:1010A0009B4808F01AFFBDEC048B70BD10B52DED08
:1010B000028B82B0994800782A2841D0974800785E
:1010C0003028FAD09548007843287DD1934840785D
:1010D000562836D19148801C09F08CFE8D49087045
:1010E00008460278AFF67C218D4809F093FD042272
:1010F0008B49002006F023FA4FF6FF701823AE222A
:1011000008210090962005F041FB824800780321D9
:10111000AFF6A8231022CDE900100821962005F093
:101120002DFF80A17D4809F07FFE81A17C4809F058
:101130007BFE78480078732802DD732075490870BB
:101140003EE176484078502842D17448801C0BF02C
:10115000EBFCB0EE408AF0EE608A51EC180B0BF01D
:10116000A9FE77490860084600680CF0DFFC41ECF6
:10117000180B53EC182BAFF6F821724809F04AFD12
:1011800005227049042006F0DAF94FF6FF703C237F
:10119000402230210090142005F0F8FA68480068D9
:1011A0000CF0C4FC41EC180B8DED008BAFF6303326
:1011B00010223021142005F0E1FE5AA1574809F011
:1011C00033FE5BA15F4800E0C8E009F02DFEF7E0C8
:1011D00052484078492840D15048801C0BF0A4FC6C
:1011E000B0EE408AF0EE608A51EC180B0BF062FE14
:1011F00055490860084600680CF098FC41EC180B53
:1012000053EC182BAFF688314E4809F003FD052248
:101210004C490A2006F093F94FF6FF703C237C22DC
:1012200030210090502005F0B1FA474800680CF0DA
:101230007DFC41EC180B8DED008BAFF6BC3310221A
:101240003021502005F09AFE36A1344809F0ECFD1B
:1012500037A13C4809F0E8FDB2E030484078442826
:10126000B5D12E48801C0BF05FFCB0EE408AF0EE4A
:10127000608A51EC180B0BF01DFE344908600846DB
:1012800000680CF053FC41EC180B53EC182BAFF634
:1012900010412C4809F0BEFC05222A49102006F016
:1012A0004EF94FF6FF703C23B422302100908C2081
:1012B00005F06CFA254800680CF038FC41EC180B7E
:1012C0008DED008BAFF64843102230218C2005F0C5
:1012D00055FE1FA1114809F0A7FD15A1194809F0F5
:1012E000A3FD6DE020000020240000202C00002041
:1012F0002800002030000020340000206C00002076
:1013000064000020C3F5285C8FC2ED3F1000002070
:10131000001800400000002068000020F6000020B7
:10132000010000202A2A2A2A2A2A2A2A2A2A0000F8
:10133000303030303030303030303000000000009D
:101340004C00002014000020500000205400002019
:101350002A2A2A2A2A2A2A2A2A000000CF48007884
:1013600053282DD1CD484078412829D1CB48801C25
:1013700009F04DFD04460021C94808F0AEFD0020EB
:10138000C84908604FF6FF702C23AA221C21009048
:10139000962005F0FBF90320AFF6305310221C21F4
:1013A000CDE90004962005F0E9FD2046FFF734FE64
:1013B0000020BD490870BDA1B84809F035FD00BF47
:1013C00002B0BDEC028B10BD10B5B748007800EE3E
:1013D000100AB8EE400A00F0D3FAB948D0ED000A7E
:1013E000F8EE600A30EE200ABCEEC00A80ED000A7A
:1013F0000068642802D36320B1490860B0480168DE
:10140000A74808F06AFD10BD00B52DED028B87B02E
:101410004FF4A06007F0E2FAA82007F08DF94FF42E
:10142000E13007F018FA00F00BFC00F049FC00F086
:101430008DFA05F0D9FF00F023FC00F0D2FC06F095
:1014400091F8A04908688047042206A9002006F008
:1014500065F806A809F0CEFC93490870062206A993
:10146000042006F05BF806A80BF05EFBB0EE408AA5
:10147000F0EE608A51EC180B0BF01CFD92490860ED
:10148000052206A90A2006F049F806A80BF04CFB35
:10149000B0EE408AF0EE608A51EC180B0BF00AFDBA
:1014A0008A490860062206A9102006F037F806A827
:1014B0000BF03AFBB0EE408AF0EE608A51EC180B6C
:1014C0000BF0F8FC8249086001F0BAFC0020814969
:1014D000088042F2CF01C72000F0C6FC542113203F
:1014E00000F0EEFC42F2CF01632000F099FD7AA3F8
:1014F000102208210F2005F041FD6520032177A36C
:101500001022CDE9001008211E2005F037FD74A33C
:10151000102208213E2005F031FD72A3102208217F
:101520006E2005F02BFD604800780321AFF6C46300
:101530001022CDE900100821962005F01FFD1F2084
:101540001A23EF2205210090BE2005F01FF967A3A2
:1015500010220821C82005F011FD65A310221C21CE
:101560000F2005F00BFD4FF4B4700321AFF60473A8
:101570001022CDE900101C211E2005F0FFFC0222E4
:101580002021422005F05AFA5AA310221C216E2075
:1015900005F0F4FC59A310221C21C82005F0EEFC34
:1015A00058A310223021052005F0E8FC9FED560BD2
:1015B0008DED020B0520AFF638731022302100901C
:1015C000142005F0DBFC52A310223021412005F04D
:1015D000D5FC3E4800680CF0A9FA41EC180B8DEDE3
:1015E000028B0320AFF66873102230210090502048
:1015F00005F0C4FC47A3102230217D2005F0BEFC7D
:10160000334800680CF092FA41EC180B8DED028B18
:101610000320AFF694731022302100908C2005F047
:10162000ADFC1F204223EF222E210090BE2005F0AA
:10163000ADF839A310223021C32005F09FFC4FF4F0
:1016400078400C2103227823CDE90232CDE9041041
:10165000062050218B000122CDE90010D7217920EE
:1016600000F0E0F900200C2103224FF4B473CDE91F
:101670000232CDE90410062050218B000022CDE972
:1016800000101421792000F0CDF907B0BDEC028BD9
:1016900000BDFFF7B9FE00BFFEE70000F600002026
:1016A0000018004068000020000000202A2A2A2A92
:1016B0002A2A2A2A2A2A2A2A2A2A2A2A0000000032
:1016C00010000020800000204C000020500000206E
:1016D0005400002070000020563A0000254400000D
:1016E000722F730041696D563A000000557000007A
:1016F000413A000041696D413A000000446F776E45
:1017000000000000503A0000666666666666284083
:10171000493A0000443A0000456E746572000000CA
:10172000704700BFFEE700BFFEE700BFFEE700BF57
:10173000FEE7704770477047704700000CB5002007
:10174000019000907648006840F480307449086049
:1017500000BF7348006800F4003000900198401CFE
:101760000190009818B90198B0F5A04FF1D16C48DC
:10177000006800F4003010B10120009001E000206A
:1017800000900098012846D165484030006840F03C
:1017900080506349403108606248006840F440402E
:1017A000604908605E48083000685D49083108609B
:1017B0000846006840F4004008600846006840F4AD
:1017C000A05008605848091F0860081F006840F0D2
:1017D0008070091F086000BF5148006800F0007069
:1017E0000028F9D040F20570504908604C48083094
:1017F000006820F003004A49083108600846006884
:1018000040F00200086000BF45480830006800F062
:101810000C000828F8D10CBD10B54548006840F40C
:101820007000434908603E48006840F001003C49B0
:10183000086000203A4908310860394800683D498D
:101840000840374908603C48091D0860081F0068C7
:1018500020F48020091F0860002031490C31086005
:10186000FFF76CFF4FF0006031498039086010BD10
:1018700070B500200022022300240221284D0835E3
:101880002D6805F00C0020B1042806D0082834D1BA
:1018900007E02A4D2A4E356033E02A4D284E356048
:1018A0002FE01F4D2D1D2D68C5F380541C4D2D1D9F
:1018B0002D6805F03F0154B1224DB5FBF1F5184EEE
:1018C000361D3668C6F3881605FB06F209E01B4D87
:1018D000B5FBF1F5124E361D3668C6F3881605FBCA
:1018E00006F20F4D2D1D2D68C5F301456D1C6B00D3
:1018F000B2FBF3F5124E356003E0104D104E35602B
:1019000000BF00BF064D08352D68C5F303150E4E08
:10191000705D0B4D2D68C540094E356070BD0000EF
:10192000003802400070004008544007003C02406C
:1019300088ED00E0FFFFF6FE103000240024F400E4
:101940003800002000127A003C0000209FEDB60A0B
:10195000B64880ED010A9FEDB40A80ED020A9FEDC2
:10196000B20A80ED040A9FEDB00A80ED030A9FEDF4
:10197000AE0A80ED000A7047AC4880ED010A70475E
:10198000F0EE400AA948C0ED000A90ED000AD0ED43
:10199000011A30EE610A80ED020A90ED020AD0EDE4
:1019A000031A30EE610AA248D0ED001A20EE210A97
:1019B0009E48D0ED021A9F4890ED002A02EE210ABF
:1019C0009A48D0ED021A90ED032AF0EE002A42EE7A
:1019D000C21A90ED042A71EE821A974890ED002AFF
:1019E00002EE210AB0EE401A904890ED030A80ED15
:1019F000040A90ED020A80ED030A9FED900AF4EECE
:101A0000C00AF1EE10FA06DBB0EE000A21EE000A81
:101A100080ED010A02E0854880ED011A834890EDCF
:101A2000010A70472DE9FF4F85B00D461C46DDE9E0
:101A3000139ADDF84880179E0598792802D00598FA
:101A4000592874D10020049083469AFBF9F080B2A3
:101A500003904F4643462A4621462846009604F006
:101A600079FF08F1070291B26A1F90B243462A46F5
:101A7000009604F06FFF08F1070291B26A1D90B260
:101A800043462A46009604F065FFA4EB0800049044
:101A9000049890FBF9F01FFA80FB079810B31EE042
:101AA0000BFB174293B20BFB174291B22A1F90B265
:101AB0002A46009604F04EFF01211698C7F1060C45
:101AC0008DE84300039B0CFB13A20BFB17439B1FEA
:101AD00099B2EB1C98B2159B05F0BAF97F1E002F46
:101AE000DEDA22E01FE00BFB174293B20BFB17423A
:101AF00091B22A1D90B22A46009604F02BFF0121D4
:101B00001698C7F1060C8DE84300039B0CFB13A24B
:101B10000BFB17439B1F99B2A5F1140398B2159BB9
:101B200005F096F97F1E002FDDDA7AE0FFE70598D1
:101B3000782802D00598582873D100200490834655
:101B40009AFBF9F080B203904F462B464246294655
:101B50002046009604F0FEFE6A1F91B208F10702CB
:101B600090B22B464246009604F0F4FE6A1D91B2F4
:101B700008F1070290B22B464246009604F0EAFEB6
:101B8000A4EB08000490049890FBF9F01FFA80FB86
:101B9000079818B31FE00BFB17439AB22B1D99B29D
:101BA0000BFB174398B22B46009604F0D3FE01219D
:101BB0001698C7F1060C8DE84300039B0CFB13A29B
:101BC000A5F10F0399B20BFB17439B1F98B2159B0E
:101BD00005F03EF97F1E002FDDDA21E01EE00BFB51
:101BE00017439AB22B1F99B20BFB174398B22B469F
:101BF000009604F0AFFE01211698C7F1060C8DE89F
:101C00004300039B0CFB13A2EB1C99B20BFB174385
:101C10009B1F98B2159B05F01BF97F1E002FDEDA83
:101C200000BF09B0BDE8F08F00000000D400002024
:101C30004C00002050000020540000200000C8424A
:101C40001CB50121202007F0E5FA4FF4C060009098
:101C500001208DF8040000208DF8060003208DF887
:101C6000050001208DF807006946044806F0ACFF26
:101C70004FF4C061014807F023F81CBD0014024076
:101C80001CB50121202007F0C5FA4FF480700090A8
:101C900001208DF8040000208DF8060003208DF847
:101CA000050002208DF807006946044806F08CFF05
:101CB0004FF48071014807F005F81CBD0014024084
:101CC0001CB50121112007F0A5FA0C20009000207E
:101CD0008DF8040003208DF8050001208DF8070021
:101CE0006946354806F070FF0120009002208DF80B
:101CF00007006946314806F067FF1CBD10B5044671
:101D000014B101202E4908702D480078002837D0E2
:101D10001021294806F0BAFF78B10821264806F0BC
:101D2000B5FF50B10421244806F0B0FF28B10121CD
:101D3000224806F0ABFF012822D10A2006F05EFD02
:101D400000201F49087010211B4806F09FFF08B9AA
:101D5000012010BD0821184806F098FF08B902209C
:101D6000F7E70421144806F091FF08B90320F0E7D3
:101D70000121124806F08AFF01281BD10420E8E760
:101D800010210D4806F082FF012813D108210A48CE
:101D900006F07CFF01280DD10421074806F076FFEC
:101DA000012807D10121054806F070FF10B9012074
:101DB000034908700020CCE70010024000000240F8
:101DC0005800002010B525480068401C23490860D1
:101DD00023480068401C22490860102007F037F8AB
:101DE00010BD00B585B00121084607F013FA102098
:101DF000009000208DF8040003208DF805000120DC
:101E00008DF807006946174806F0DEFE01218803B9
:101E100007F05AFA0421002007F061FB102002901D
:101E200000208DF80C000C208DF80D0001208DF89D
:101E30000E0002A806F09AFF0A208DF8100001207B
:101E40008DF8110002208DF8120001208DF813008A
:101E500004A806F0C8FD05B000BD00005C0000202D
:101E600068000020000002407FB505460C460121B5
:101E7000022007F018FA0295ADF804400020ADF8F2
:101E80000600ADF80C0001A9594807F038FE012200
:101E90001146574808F0D4FA0121554807F0B8FE1A
:101EA0001D208DF8000001208DF8010003208DF821
:101EB000020001208DF80300684606F094FD7FBD06
:101EC0007FB505460C460121042007F0ECF9029588
:101ED000ADF804400020ADF80600ADF80C0001A9F3
:101EE000444807F00CFE01221146424808F0A8FAC7
:101EF0000121404807F08CFE1E208DF800000120D3
:101F00008DF8010006208DF8020001208DF80300F5
:101F1000684606F068FD7FBD10B52DED068B0121EA
:101F2000334808F0A4FA012829D1334890ED000A7B
:101F3000B8EE400A314880ED000A00202E490860C2
:101F40002E4800680BF0F2FD41EC1A0B9FED2C0BB4
:101F500053EC102B0BF0F4FA41EC190B9FED2A0B0C
:101F600053EC102B0BF094F841EC180B0AF0A2FF85
:101F700022490860084690ED000AFFF7FDFC0121A8
:101F80001B4808F085FABDEC068B10BD10B52DED91
:101F9000048B0121174808F06AFA012821D11C4856
:101FA00000684FF4A77190FBF1F201FB1204204688
:101FB0000BF05FFA41EC190B9FED160B53EC102B55
:101FC0000BF0BEFA41EC180B0BF026FA134908602F
:101FD0000F4800684EF6D821884202D100200C49F3
:101FE00008600121034808F053FABDEC048B10BDD2
:101FF00000040040000800405C0000206C0000204D
:1020000000000000000049400000000000E07440B3
:1020100068000020736891ED7C3FF13F6400002070
:1020200030B58BB004460D460121402007F03BF946
:102030000121022007F0EEF809220E211E4806F0C9
:102040004EFE4FF48040099002208DF828000320B6
:102050008DF8290000208DF82A0001208DF82B0032
:1020600009A9154806F0B0FDA8B2ADF81800002087
:10207000ADF81A000794ADF8200006A90F4807F044
:102080003EFD7020ADF804000120ADF806000220EE
:10209000ADF8100001A9094807F0C6FD082107485E
:1020A00007F04FFF0121054807F094FD0121034887
:1020B00007F0AEFD0BB030BD000402400018004038
:1020C00001B5BDF800000090BDF80000F849088097
:1020D00008BD01B5BDF800000090BDF80000F4494E
:1020E000891C088008BD08B5F148801C0088009054
:1020F000BDF8000008BDEE4A10804FF0D842A2F8AB
:102100008010704710B504462046FFF7D9FF052020
:1021100006F02CFBFFF7E7FF10BDE6480089E44915
:1021200008807047E249891C0880704730B5014635
:1021300001F01F04C1F34513CA0AE50205EB43157C
:102140001544A8B230BD00BF011EA0F10102D0B2FB
:10215000FAD1704730B504460D46D648808849F21A
:102160004131884205D0D348808845F210318842F9
:1021700014D1D0494889FFF7A3FF2012FFF7A9FF28
:10218000E0B2FFF7A6FFCB498889FFF799FF281235
:10219000FFF79FFFE8B2FFF79CFFABE0C5488088E0
:1021A00046F6040188421DD1C2488079012804D135
:1021B000C0480088401E001B84B2BE494889FFF712
:1021C0007FFF2012FFF785FFE0B2FFF782FFB949DA
:1021D0008889FFF775FF2812FFF77BFFE8B2FFF74A
:1021E00078FF87E0B348808841F66311884247D181
:1021F000B0488079A8B9AF480088401E001B84B25F
:10220000AC494889FFF75CFF0020FFF762FF002020
:10221000FFF75FFF2012FFF75CFFE0B2FFF759FF07
:1022200016E0A4494889FFF74BFF2012FFF751FF42
:10223000E0B2FFF74EFF9F490988491EC1F30F2006
:10224000FFF747FF9B490978491EC8B2FFF741FFD6
:1022500098498889FFF734FF2812FFF73AFFE8B260
:10226000FFF737FF93494988491EC1F30F20FFF755
:1022700030FF90498978491EC8B2FFF72AFF39E03C
:102280008C48808845F21051884220D1894948897C
:10229000FFF716FF2012FFF71CFF86494989491CEA
:1022A00088B2FFF70DFFE0B2FFF713FF814988897D
:1022B000FFF706FF2812FFF70CFF7E498989491CAA
:1022C00088B2FFF7FDFEE8B2FFF703FF12E079489E
:1022D0008079012804D177480088401E001B84B211
:1022E000744948892146FFF706FF724988892946C3
:1022F000FFF701FF30BD2DE9F04105460E460024F1
:102300000027A0466B480088A84203DD6948408842
:10231000B04202DC0020BDE8F08131462846FFF7DC
:1023200019FF6448808849F24131884211D06148E0
:10233000808846F6040188420BD05E48808845F2CA
:102340001031884205D05B48808841F6631188428D
:1023500003D12E20FFF7B4FE0DE05648808845F2E9
:102360001051884204D14FF43850FFF7A9FE02E023
:102370002220FFF7A5FE4F48808849F2203188428D
:1023800002D10220FFF7DFFEFFF7ADFE0446494809
:10239000808841F66311884201D12046BBE70220C4
:1023A000FFF7D1FEFFF79FFE04464248808849F2BE
:1023B000413188420BD03F48808845F21031884235
:1023C00005D03C48808845F2105188420AD102204D
:1023D000FFF7B9FEFFF787FE8046E7B24FF6FF70C2
:1023E00000EA07273348808849F22531884216D011
:1023F0003048808844F23551884210D02D4880887A
:10240000091F88420BD02B4880884BF20551884227
:1024100005D0284880884CF20551884201D12046D9
:1024200079E72448808849F2413188420BD021481D
:10243000808845F21031884205D01E48808845F2D8
:102440001051884207D1E012C002B91240EA41108F
:1024500040EAE8205FE72046FFF768FE5BE700B54B
:102460001448808849F24131884211D0114880884F
:1024700046F6040188420BD00E48808845F21031A0
:10248000884205D00B48808841F66311884203D109
:102490002920FFF715FE14E00648808845F2105108
:1024A000884209D14FF42450FFF70AFE09E00000EA
:1024B0007E00006CE800002040F273110720FFF757
:1024C0001AFE00BD00B5FD48808849F241318842BE
:1024D00011D0FA48808846F6040188420BD0F748AC
:1024E000808845F21031884205D0F448808841F652
:1024F0006311884203D12820FFF7E2FD0EE0EF4888
:10250000808845F21051884204D14FF42050FFF7E3
:10251000D7FD03E000210720FFF7EDFD00BDF0B57A
:10252000054600240027E548807901280BD1E348BF
:10253000808846F60401884205D0E048808841F64C
:102540006311884208D1DD488079F0B9DB48808882
:1025500041F66311884218D1082D15D2DFE805F045
:102560000406080A0C0E101206250DE007250BE0E4
:10257000042509E0052507E0012505E0002503E025
:10258000032501E0022500BF00BFCC48808849F246
:102590004131884217D0C948808846F604018842F4
:1025A00011D0C648808845F2103188420BD0C3480C
:1025B000808845F21051884205D0C048808841F695
:1025C000631188427ED1082D1CD2DFE805F0040695
:1025D000090C0F12151800BF14E044F0800411E03C
:1025E00044F040040EE044F0C0040BE044F020044A
:1025F00008E044F0600405E044F0A00402E044F088
:10260000E00400BF00BFAD48808845F21051884209
:1026100002D14FF4585700E03627A848808845F289
:10262000103188420DD0A548808845F2105188426B
:1026300007D0A248808841F66311884201D044F057
:1026400008049E48808846F60401884201D144F07F
:10265000020421463846FFF74EFD9848808841F62F
:10266000631188421DD004F0200068B193480088AF
:1026700092494988884214DA9048068840888F49F0
:102680000880084646800CE08C4800888B494988C1
:10269000884206DD894806884088884908800846BF
:1026A00046808648808845F21051884254D183493B
:1026B0004889FFF705FD0020FFF70BFD7F49498999
:1026C000491C00E077E088B2FFF7FAFC0020FFF732
:1026D00000FD7A494989891C88B2FFF7F1FC7749E6
:1026E0000988491EC1F30F20FFF7F3FC734949899C
:1026F000C91C88B2FFF7E4FC70490978491EC8B2CA
:10270000FFF7E7FC6D498889FFF7DAFC0020FFF747
:10271000E0FC6A498989491C88B2FFF7D1FC002096
:10272000FFF7D7FC65498989891C88B2FFF7C8FC87
:1027300062494988491EC1F30F20FFF7CAFC5F496F
:102740008989C91C88B2FFF7BBFC5C498978491E9E
:10275000C8B2FFF7BEFC55E058494889FFF7B0FC06
:102760000020FFF7B6FC0020FFF7B3FC53490988AF
:10277000491EC1F30F20FFF7ACFC50490978491EF0
:10278000C8B2FFF7A6FC4D498889FFF799FC0020E5
:10279000FFF79FFC0020FFF79CFC48494988491E31
:1027A000C1F30F20FFF795FC44498978491EC8B250
:1027B000FFF78FFC26E0082D1CD2DFE805F00407A8
:1027C0000A0D0F12151844F0300413E044F0100401
:1027D00010E044F020040DE000BF0BE044F03804AA
:1027E00008E044F0280405E044F0180402E044F056
:1027F000080400BF00BF032744F480542146384634
:10280000FFF779FCF0BD30B504460D462946204659
:10281000FFF7A0FCFFF781FC2948008829490880C0
:1028200030BD70B504460D4616462448808849F2EE
:102830004131884205D02148808845F210318842D4
:1028400014D11E494889FFF73BFC2012FFF741FCD9
:10285000E0B2FFF73EFC19498889FFF731FC2812E6
:10286000FFF737FCE8B2FFF734FC93E013488088A9
:1028700045F21051884227D110494889FFF720FCC2
:102880002012FFF726FC0D494989491C88B2FFF741
:1028900017FCE0B2FFF71DFC08498889FFF710FC20
:1028A0002812FFF716FC05498989491C88B2FFF7F1
:1028B00007FCE8B2FFF70DFC6CE00000E800002028
:1028C000700000208000006CFE48808841F6631193
:1028D000884228D1FB48807920B9FA480088401EF8
:1028E000001B84B2F7494889FFF7EAFB2012FFF783
:1028F000F0FBE0B2FFF7EDFB2012FFF7EAFBE0B2DE
:10290000FFF7E7FBEF498889FFF7DAFB2812FFF7AB
:10291000E0FBE8B2FFF7DDFB2812FFF7DAFBE8B2D5
:10292000FFF7D7FB36E0E748808846F60401884287
:102930001DD1E4488079012804D1E2480088401E76
:10294000001B84B2DF494889FFF7BAFB2012FFF76A
:10295000C0FBE0B2FFF7BDFBDA498889FFF7B0FBA7
:102960002812FFF7B6FBE8B2FFF7B3FB12E0D54839
:102970008079012804D1D3480088401E001B84B20E
:10298000D04948892146FFF7B6FBCE4988892946B8
:10299000FFF7B1FBCB480089CB4908804FF0D84006
:1029A000A0F8806070BD70B52DED048B0446BE208C
:1029B000FFF786FB0520FFF78CFB20460AF070FD31
:1029C00041EC190B9FEDC10B53EC102B0AF0B8FD35
:1029D00041EC180B0AF020FD85B22846FFF779FB81
:1029E0000120FFF776FBFF20FFF773FB0020FFF7C6
:1029F00070FB0020FFF76DFBBDEC048B70BD10B5C4
:102A00000446002C66D1AF498871F02008804FF44D
:102A1000A07048800846808849F2413188420BD036
:102A2000A848808846F60401884205D0A5488088D9
:102A300045F2103188421AD12C20A24908812A205F
:102A400048812B2088810846808846F60401884208
:102A500005D09C48808845F21031884206D14FF459
:102A6000A070984908804FF4F0704880A1E0954824
:102A7000808845F21051884210D14FF4305091496E
:102A800008814FF4285048814FF42C5088814FF42E
:102A9000F07008804FF4487048808AE08948808848
:102AA00041F6631188420DD12C20864908812B20E4
:102AB00048812A2088814FF4F07008804FF44870D4
:102AC000488076E022207F4908812020488121200B
:102AD00088816EE001207B4988714FF4A0700880E6
:102AE000F02048800846808849F24131884205D06C
:102AF0007448808845F21031884207D12C207149F2
:102B000008812A2048812B2088813FE06D488088F9
:102B100046F60401884207D12C206A4908812B20FF
:102B200048812A20888131E06648808845F210512A
:102B3000884210D14FF43050624908814FF4285038
:102B400048814FF42C5088814FF4487008804FF42E
:102B5000F07048801AE05B48808841F66311884233
:102B60000DD12C20574908812A2048812B208881AB
:102B70004FF4487008804FF4F070488006E022203F
:102B80005049088121204881202088814D48808833
:102B900046F60401884205D04A48808845F2103143
:102BA000884206D14FF4F070464908804FF4A07077
:102BB00048800020FFF7B3FC10BD2DE9F04F86B030
:102BC00004460D469046994604EB0800401E86B226
:102BD00005EB0900401E87B23A48808849F241312E
:102BE000884215D03748808845F2103188420FD08E
:102BF0003448808846F60401884209D031488079FB
:102C0000012826D12F48808841F66311884220D1BF
:102C10002C494889FFF754FA2012FFF75AFAE0B21C
:102C2000FFF757FA3012FFF754FAF0B2FFF751FAF4
:102C300024498889FFF744FA2812FFF74AFAE8B2D4
:102C4000FFF747FA3812FFF744FAF8B2FFF741FAF4
:102C5000C1E01C48808841F6631188423DD1194883
:102C60000088A0EB0800001B84B205EB0900401EA1
:102C70001FFA80F913494889FFF722FA2012FFF75B
:102C800028FAE0B2FFF725FA04EB0801491EC1F368
:102C90000F20FFF71EFA04EB0801491EC8B2FFF728
:102CA00018FA08498889FFF70BFA2812FFF711FA7A
:102CB000E8B2FFF70EFA4FEA2920FFF70AFA09F007
:102CC000FF0007E0E80000207E00006C6666666694
:102CD00066660440FFF7FDF97DE0FE48808845F216
:102CE0001051884244D1FB494889FFF7E9F9201285
:102CF000FFF7EFF9F7494989491C88B2FFF7E0F976
:102D0000E0B2FFF7E6F9F3494989891C88B2FFF779
:102D1000D7F93012FFF7DDF9EE494989C91C88B2AD
:102D2000FFF7CEF9F0B2FFF7D4F9EA498889FFF747
:102D3000C7F92812FFF7CDF9E6498989491C88B2FD
:102D4000FFF7BEF9E8B2FFF7C4F9E2498989891CA7
:102D500088B2FFF7B5F93812FFF7BBF9DD49898969
:102D6000C91C88B2FFF7ACF9F8B2FFF7B2F932E04C
:102D7000D848807901280ED1AA46BB46D54800889C
:102D8000801B401E80B20190D2480088001B401E6C
:102D900080B2009003E0A246B34601950097502010
:102DA00005905120049052200390532002905146E8
:102DB0000598FFF7A0F959460498FFF79CF9019987
:102DC0000398FFF798F900990298FFF794F92946BC
:102DD0002046FFF7BFF906B0BDE8F08F70B5044696
:102DE0000026BC48058840884543BA48808846F696
:102DF0000401884216D1B7488079012812D10020F9
:102E0000B44988712A2048812B20888100210846F6
:102E1000FFF7A0F90120AF4988712B2048812A20B3
:102E2000888103E000210846FFF794F9FFF775F960
:102E3000002602E0A8480480761CAE42FAD370BD9A
:102E400000B5A1B00020209001217A2006F0E2F91F
:102E50000121084606F016FA4FF400401E900120AA
:102E60008DF87C0000208DF87E0002208DF87D001A
:102E700001208DF87F001EA9984805F0A5FE4CF2B0
:102E800033701E9002208DF87C0000208DF87E00AB
:102E900003208DF87D0001208DF87F001EA9904849
:102EA00005F092FE4FF680701E9002208DF87C0097
:102EB00000208DF87E0003208DF87D0001208DF824
:102EC0007F001EA9874805F07FFE4FF480501E90BA
:102ED00002208DF87C0000208DF87E0003208DF804
:102EE0007D0001208DF87F001EA97F4805F06CFE53
:102EF0004FF480501E9002208DF87C0000208DF849
:102F00007E0003208DF87D0001208DF87F001EA932
:102F1000764805F059FE0C220021714805F0DFFECD
:102F20000C2201216E4805F0DAFE0C2204216C48C7
:102F300005F0D5FE0C220521694805F0D0FE0C22D3
:102F40000821674805F0CBFE0C220921644805F0F2
:102F5000C6FE0C220A21624805F0C1FE0C220E2199
:102F60005F4805F0BCFE0C220F215D4805F0B7FE5E
:102F70000C2207215B4805F0B2FE0C2208215948BB
:102F800005F0ADFE0C220921564805F0A8FE0C22E2
:102F90000A21544805F0A3FE0C220B21514805F0EC
:102FA0009EFE0C2211464F4805F099FE0C220D2181
:102FB0004C4805F094FE0C220E214A4805F08FFE85
:102FC0000C220F21474805F08AFE0C221146464884
:102FD00005F085FE0C221146444805F080FE0F20C6
:102FE0000890002009903C200A9000200B900C9043
:102FF0000D900E900920019000200290082003906F
:103000000020049005900690079006200F90002065
:103010001090119010201290002013901590149091
:10302000169017904FF480501890002019904FF48C
:1030300080401A9000201B9008A81C9001A81D90A9
:103040000FA807F01CFB0121062007F0A3FB32208C
:1030500005F0D4FB01210020FFF74DF8322005F0E8
:10306000CDFB0020FFF74EF81A498880084680887B
:10307000FF280ADB084680884FF6FF71884204D09B
:1030800014488088B0F5134F7ED1D320FFF718F88D
:10309000FFF729F80F498880FFF725F80D49888048
:1030A000FFF721F80B498880084680884FF6FF71AA
:1030B00001EA002007498880FFF715F8054989884B
:1030C0000843044988800846808849F24131884293
:1030D0005AD00DE0E80000208000006C000402409F
:1030E000000C024000100240001402400018024090
:1030F000BF20FEF7E5FFFEF7F6FFFE498880FEF7EA
:10310000F2FFFC498880FEF7EEFFFA498880FEF75F
:10311000EAFFF8498880084680884FF6FF7101EA87
:103120000020F4498880FEF7DEFFF24989880843D1
:10313000F04988800846808846F6040188427AD0A3
:10314000D420FEF7BDFFFEF7CEFFEA498880FEF7E8
:10315000CAFFE8498880FEF7C6FFE649888008462E
:1031600080884FF6FF7101EA0020E2498880FEF76F
:10317000BAFFE04989880843DE498880084680888C
:1031800045F21031884200E055E054D04FF45A40E7
:10319000FEF796FFFEF7A7FFD64988804FF45B4005
:1031A000FEF78EFFFEF79FFFD24988800846808891
:1031B0004FF6FF7101EA0020CE4988804FF45C4051
:1031C000FEF77EFFFEF78FFFCA4989880843C94989
:1031D000888008468088B0F5004F02D145F2105033
:1031E0008880C448808845F21051884223D0A120AD
:1031F000FEF766FFFEF777FFBE498880FEF773FF94
:10320000BC498880084680884FF6FF7101EA00209B
:10321000B8498880FEF767FFB64989880843B549F1
:1032200088800846808845F26171884203D141F662
:103230006310B0498880AF48808849F241318842A4
:1032400011D0AC48808845F2103188420BD0A94893
:10325000808845F21051884205D0A648808841F602
:10326000631188421DD1A448006820F00F004FF080
:103270002041C1F81C010846D0F81C0120F4706000
:10328000C1F81C010846D0F81C0140F00300C1F849
:103290001C010846D0F81C0140F40070C1F81C0164
:1032A00028E09448808846F60401884205D0914879
:1032B00080884CF2055188421CD18F48006820F06C
:1032C0000F004FF02041C1F81C010846D0F81C0146
:1032D00020F47060C1F81C010846D0F81C0140F0D1
:1032E0000A00C1F81C010846D0F81C0140F44060F7
:1032F000C1F81C017F48808849F2413188427CD165
:10330000CF20FEF7DDFE0020FEF7E3FEC120FEF732
:10331000E0FE3020FEF7DDFEED20FEF7D1FE64205A
:10332000FEF7D7FE0320FEF7D4FE1220FEF7D1FEF3
:103330008120FEF7CEFEE820FEF7C2FE8520FEF7D4
:10334000C8FE1020FEF7C5FE7A20FEF7C2FECB2095
:10335000FEF7B6FE3920FEF7BCFE2C20FEF7B9FEC4
:103360000020FEF7B6FE3420FEF7B3FE0220FEF783
:10337000B0FEF720FEF7A4FE2020FEF7AAFEEA200A
:10338000FEF79EFE0020FEF7A4FE0020FEF7A1FE41
:10339000C020FEF795FE1B20FEF79BFEC120FEF726
:1033A0008FFE0120FEF795FEC520FEF789FE302036
:1033B000FEF78FFE3020FEF78CFEC720FEF780FE62
:1033C000B720FEF786FE3620FEF77AFE4820FEF78D
:1033D00080FE3A20FEF774FE5520FEF77AFEB120FB
:1033E000FEF76EFE0020FEF774FE1A20FEF771FE57
:1033F000B620FEF765FE0A2000E09EE0FEF769FEBB
:10340000A220FEF766FEF220FEF75AFE0020FEF72D
:1034100060FE2620FEF754FE0120FEF75AFEE02053
:10342000FEF74EFE0F20FEF754FE2A20FEF751FE57
:103430002820FEF74EFE0820FEF74BFE0E20FEF77A
:1034400048FE0820FEF745FE5420FEF742FEA92064
:10345000FEF73FFE4320FEF73CFE0A20FEF739FE52
:103460000F20FEF736FE0020FEF733FE0020FEF7A9
:1034700030FE0020FEF72DFE0020FEF72AFEE120A0
:10348000FEF71EFE0020FEF724FE1520FEF721FEAB
:103490001720FEF71EFE0720FEF71BFE1120FEF789
:1034A00018FE0620FEF715FE2B20FEF712FE562012
:1034B000FEF70FFE3C20FEF70CFE0520FEF709FE8E
:1034C0001020FEF706FE0F20FEF703FE3F20FEF75A
:1034D00000FE3F20FEF7FDFD0F20FEF7FAFD2B203A
:1034E000FEF7EEFD0020FEF7F4FD0020FEF7F1FDF3
:1034F000012003E0E80000201C0100A0FEF7E9FD28
:103500003F20FEF7E6FD2A20FEF7DAFD0020FEF759
:10351000E0FD0020FEF7DDFD0020FEF7DAFDEF20E4
:10352000FEF7D7FD1120FEF7CBFD782005F066F9F8
:103530002920FEF7C5FD03F01DB9FE48808846F638
:10354000040188427ED11120FEF7BAFD142005F057
:1035500055F9D020FEF7B4FD0720FEF7BAFD422052
:10356000FEF7B7FD1D20FEF7B4FDD120FEF7A8FD44
:103570000020FEF7AEFD1A20FEF7ABFD0920FEF796
:10358000A8FDD220FEF79CFD0120FEF7A2FD22201F
:10359000FEF79FFDC020FEF793FD1020FEF799FD7A
:1035A0003B20FEF796FD0020FEF793FD0220FEF77C
:1035B00090FD1120FEF78DFDC520FEF781FD032053
:1035C000FEF787FDC820FEF77BFD0020FEF781FD9A
:1035D0002520FEF77EFD2120FEF77BFD0520FEF76E
:1035E00078FD0020FEF775FD0A20FEF772FD6520CC
:1035F000FEF76FFD2520FEF76CFD7720FEF769FDD5
:103600005020FEF766FD0F20FEF763FD0020FEF759
:1036100060FDF820FEF754FD0120FEF75AFDFE2064
:10362000FEF74EFD0020FEF754FD0220FEF751FD8F
:103630002020FEF745FD3620FEF742FD0820FEF76C
:1036400048FD00E02AE03A20FEF73AFD5520FEF75B
:1036500040FD2B20FEF734FD0020FEF73AFD002050
:10366000FEF737FD0120FEF734FD3F20FEF731FD68
:103670002A20FEF725FD0020FEF72BFD0020FEF797
:1036800028FD0120FEF725FDDF20FEF722FD782032
:1036900005F0B4F82920FEF713FD4CE7A548808813
:1036A00045F21031884240F07C87ED20FEF708FD9E
:1036B0000120FEF70EFDFE20FEF70BFDEE20FEF7CB
:1036C000FFFCDE20FEF705FD2120FEF702FDF120C4
:1036D000FEF7F6FC0120FEF7FCFCDF20FEF7F0FC15
:1036E0001020FEF7F6FCC420FEF7EAFC8F20FEF760
:1036F000F0FCC620FEF7E4FC0020FEF7EAFCE22026
:10370000FEF7E7FCE220FEF7E4FCE220FEF7E1FC36
:10371000BF20FEF7D5FCAA20FEF7DBFCB020FEF7A9
:10372000CFFC0D20FEF7D5FC0020FEF7D2FC0D20CB
:10373000FEF7CFFC0020FEF7CCFC1120FEF7C9FC01
:103740000020FEF7C6FC1920FEF7C3FC0020FEF7A0
:10375000C0FC2120FEF7BDFC0020FEF7BAFC2D20A6
:10376000FEF7B7FC0020FEF7B4FC3D20FEF7B1FCED
:103770000020FEF7AEFC5D20FEF7ABFC0020FEF75C
:10378000A8FC5D20FEF7A5FC0020FEF7A2FCB120FE
:10379000FEF796FC8020FEF79CFC0020FEF799FCCB
:1037A0008B20FEF796FC0020FEF793FC9620FEF798
:1037B00090FC0020FEF78DFCB220FEF781FC00207B
:1037C000FEF787FC0020FEF784FC0220FEF781FC58
:1037D0000020FEF77EFC0320FEF77BFC0020FEF7B6
:1037E00078FCB320FEF76CFC0020FEF772FC002092
:1037F000FEF76FFC0020FEF76CFC0020FEF769FC72
:103800000020FEF766FC0020FEF763FC0020FEF7B8
:1038100060FC0020FEF75DFC0020FEF75AFC002053
:10382000FEF757FC0020FEF754FC0020FEF751FC89
:103830000020FEF74EFC0020FEF74BFC0020FEF7B8
:1038400048FC0020FEF745FC0020FEF742FC00206B
:10385000FEF73FFC0020FEF73CFC0020FEF739FCA1
:103860000020FEF736FC0020FEF733FC0020FEF7B8
:1038700030FC0020FEF72DFCB420FEF721FC8B204D
:10388000FEF727FC0020FEF724FC9620FEF721FC23
:103890000020FEF71EFCA120FEF71BFC0020FEF717
:1038A00018FCB520FEF70CFC0220FEF712FC0020ED
:1038B000FEF70FFC0320FEF70CFC0020FEF709FCCE
:1038C0000420FEF706FC0020FEF703FCB620FEF7FE
:1038D000F7FB0020FEF7FDFB0020FEF7FAFBB72008
:1038E000FEF7EEFB0020FEF7F4FB0020FEF7F1FBF5
:1038F0003F20FEF7EEFB0020FEF7EBFB5E20FEF71D
:10390000E8FB0020FEF7E5FB6420FEF7E2FB002069
:10391000FEF7DFFB8C20FEF7DCFB0020FEF7D9FB77
:10392000AC20FEF7D6FB0020FEF7D3FBDC20FEF731
:10393000D0FB01E0E80000200020FEF7CAFB702069
:10394000FEF7C7FB0020FEF7C4FB9020FEF7C1FB8B
:103950000020FEF7BEFBEB20FEF7BBFB0020FEF7CE
:10396000B8FBDC20FEF7B5FB0020FEF7B2FBB82069
:10397000FEF7A6FB0020FEF7ACFB0020FEF7A9FB3C
:103980000020FEF7A6FB0020FEF7A3FB0020FEF7B9
:10399000A0FB0020FEF79DFB0020FEF79AFB002015
:1039A000FEF797FBBA20FEF78BFB2420FEF791FB76
:1039B0000020FEF78EFB0020FEF78BFB0020FEF7B9
:1039C00088FBC120FEF77CFB2020FEF782FB002055
:1039D000FEF77FFB5420FEF77CFB0020FEF779FB0F
:1039E000FF20FEF776FB0020FEF773FBC220FEF7F8
:1039F00067FB0A20FEF76DFB0020FEF76AFB042040
:103A0000FEF767FB0020FEF764FBC320FEF758FBC0
:103A10003C20FEF75EFB0020FEF75BFB3A20FEF742
:103A200058FB0020FEF755FB3920FEF752FB002023
:103A3000FEF74FFB3720FEF74CFB0020FEF749FB5B
:103A40003C20FEF746FB0020FEF743FB3620FEF746
:103A500040FB0020FEF73DFB3220FEF73AFB002042
:103A6000FEF737FB2F20FEF734FB0020FEF731FB7B
:103A70002C20FEF72EFB0020FEF72BFB2920FEF763
:103A800028FB0020FEF725FB2620FEF722FB002066
:103A9000FEF71FFB2420FEF71CFB0020FEF719FB9E
:103AA0002420FEF716FB0020FEF713FB2320FEF771
:103AB00010FB0020FEF70DFB3C20FEF70AFB002068
:103AC000FEF707FB3620FEF704FB0020FEF701FBA4
:103AD0003220FEF7FEFA0020FEF7FBFA2F20FEF759
:103AE000F8FA0020FEF7F5FA2C20FEF7F2FA002093
:103AF000FEF7EFFA2920FEF7ECFA0020FEF7E9FACC
:103B00002620FEF7E6FA0020FEF7E3FA2420FEF76F
:103B1000E0FA0020FEF7DDFA2420FEF7DAFA0020B2
:103B2000FEF7D7FA2320FEF7D4FA0020FEF7D1FAE9
:103B3000C420FEF7C5FA6220FEF7CBFA0020FEF79C
:103B4000C8FA0520FEF7C5FA0020FEF7C2FA842065
:103B5000FEF7BFFA0020FEF7BCFAF020FEF7B9FA34
:103B60000020FEF7B6FA1820FEF7B3FA0020FEF7A1
:103B7000B0FAA420FEF7ADFA0020FEF7AAFA18204A
:103B8000FEF7A7FA0020FEF7A4FA5020FEF7A1FAEC
:103B90000020FEF79EFA0C20FEF79BFA0020FEF7AD
:103BA00098FA1720FEF795FA0020FEF792FA952072
:103BB000FEF78FFA0020FEF78CFAF320FEF789FA61
:103BC0000020FEF786FAE620FEF783FA0020FEF7D3
:103BD00080FAC520FEF774FA3220FEF77AFA002048
:103BE000FEF777FA4420FEF774FA0020FEF771FA28
:103BF0006520FEF76EFA0020FEF76BFA7620FEF7DE
:103C000068FA0020FEF765FA8820FEF762FA0020C5
:103C1000FEF75FFAC620FEF753FA2020FEF759FAA6
:103C20000020FEF756FA1720FEF753FA0020FEF7A1
:103C300050FA0120FEF74DFA0020FEF74AFAC7209D
:103C4000FEF73EFA0020FEF744FA0020FEF741FAA4
:103C50000020FEF73EFA0020FEF73BFAC820FEF7F0
:103C60002FFA0020FEF735FA0020FEF732FA002086
:103C7000FEF72FFA0020FEF72CFAC920FEF720FAF3
:103C80000020FEF726FA0020FEF723FA0020FEF7B8
:103C900020FA0020FEF71DFA0020FEF71AFA002095
:103CA000FEF717FA0020FEF714FA0020FEF711FACB
:103CB0000020FEF70EFA0020FEF70BFA0020FEF7B8
:103CC00008FA0020FEF705FA0020FEF702FA0020AD
:103CD000FEF7FFF90020FEF7FCF90020FEF7F9F9E6
:103CE000E020FEF7EDF91620FEF7F3F90020FEF7CD
:103CF000F0F91C20FEF7EDF90020FEF7EAF921208B
:103D0000FEF7E7F90020FEF7E4F93620FEF7E1F9C7
:103D10000020FEF7DEF94620FEF7DBF90020FEF773
:103D2000D8F95220FEF7D5F90020FEF7D2F9642029
:103D3000FEF7CFF90020FEF7CCF97A20FEF7C9F99B
:103D40000020FEF7C6F98B20FEF7C3F90020FEF72E
:103D5000C0F99920FEF7BDF90020FEF7BAF9A820B6
:103D6000FEF7B7F90020FEF7B4F9B920FEF7B1F974
:103D70000020FEF7AEF9C420FEF7ABF90020FEF7F5
:103D8000A8F9CA20FEF7A5F90020FEF7A2F9D22073
:103D9000FEF79FF90020FEF79CF9D920FEF799F96C
:103DA0000020FEF796F9E020FEF793F90020FEF7D9
:103DB00090F9F320FEF78DF90020FEF78AF9E12053
:103DC000FEF77EF91620FEF784F90020FEF781F950
:103DD0001C20FEF77EF90020FEF77BF92220FEF77B
:103DE00078F90020FEF775F93620FEF772F9002009
:103DF000FEF76FF94520FEF76CF90020FEF769F930
:103E00005220FEF766F90020FEF763F96420FEF702
:103E100060F90020FEF75DF97A20FEF75AF90020DC
:103E2000FEF757F98B20FEF754F90020FEF751F901
:103E30009920FEF74EF90020FEF74BF9A820FEF777
:103E400048F90020FEF745F9B920FEF742F90020B5
:103E5000FEF73FF9C420FEF73CF90020FEF739F9E0
:103E6000CA20FEF736F90020FEF733F9D220FEF71C
:103E700030F90020FEF72DF9D820FEF72AF90020AE
:103E8000FEF727F9E020FEF724F90020FEF721F9DC
:103E9000F320FEF71EF90020FEF71BF9E220FEF7E3
:103EA0000FF90520FEF715F90020FEF712F90B2097
:103EB000FEF70FF90020FEF70CF91B20FEF709F9B9
:103EC0000020FEF706F93420FEF703F90020FEF784
:103ED00000F94420FEF7FDF80020FEF7FAF84F2025
:103EE000FEF7F7F80020FEF7F4F86120FEF7F1F88E
:103EF0000020FEF7EEF87920FEF7EBF80020FEF741
:103F0000E8F88820FEF7E5F80020FEF7E2F89720B1
:103F1000FEF7DFF80020FEF7DCF8A620FEF7D9F860
:103F20000020FEF7D6F8B720FEF7D3F80020FEF702
:103F3000D0F8C220FEF7CDF80020FEF7CAF8C7205F
:103F4000FEF7C7F80020FEF7C4F8D120FEF7C1F84D
:103F50000020FEF7BEF8D620FEF7BBF80020FEF7E3
:103F6000B8F8DD20FEF7B5F80020FEF7B2F8F32030
:103F7000FEF7AFF80020FEF7ACF8E320FEF7A0F85C
:103F80000520FEF7A6F80020FEF7A3F80A20FEF7AA
:103F9000A0F80020FEF79DF81C20FEF79AF80020FC
:103FA000FEF797F83320FEF794F80020FEF791F81B
:103FB0004420FEF78EF80020FEF78BF85020FEF725
:103FC00088F80020FEF785F86220FEF782F80020CE
:103FD000FEF77FF87820FEF77CF80020FEF779F8EE
:103FE0008820FEF776F80020FEF773F89720FEF79A
:103FF00070F80020FEF76DF8A620FEF76AF80020A2
:10400000FEF767F8B720FEF764F80020FEF761F8C6
:10401000C220FEF75EF80020FEF75BF8C720FEF72F
:1040200058F80020FEF755F8D120FEF752F800208E
:10403000FEF74FF8D520FEF74CF80020FEF749F8C0
:10404000DD20FEF746F80020FEF743F8F320FEF7E8
:1040500040F80020FEF73DF8E420FEF731F801209B
:10406000FEF737F80020FEF734F80120FEF731F8AC
:104070000020FEF72EF80220FEF72BF80020FEF7B6
:1040800028F82A20FEF725F80020FEF722F83C2029
:10409000FEF71FF80020FEF71CF84B20FEF719F87A
:1040A0000020FEF716F85D20FEF713F80020FEF75B
:1040B00010F87420FEF70DF80020FEF70AF88420AF
:1040C000FEF707F80020FEF704F89320FEF701F84A
:1040D0000020FDF7FEFFA220FDF7FBFF0020FDF70B
:1040E000F8FFB320FDF7F5FF0020FDF7F2FFBE203B
:1040F000FDF7EFFF0020FDF7ECFFC420FDF7E9FF1F
:104100000020FDF7E6FFCD20FDF7E3FF0020FDF7DF
:10411000E0FFD320FDF7DDFF0020FDF7DAFFDD2013
:10412000FDF7D7FF0020FDF7D4FFF320FDF7D1FF07
:104130000020FDF7CEFFE520FDF7C2FF0020FDF7D0
:10414000C8FF0020FDF7C5FF0020FDF7C2FF0020DB
:10415000FDF7BFFF0220FDF7BCFF0020FDF7B9FF10
:104160002920FDF7B6FF0020FDF7B3FF3C20FDF747
:10417000B0FF0020FDF7ADFF4B20FDF7AAFF0020A8
:10418000FDF7A7FF5D20FDF7A4FF0020FDF7A1FFCD
:104190007420FDF79EFF0020FDF79BFF8420FDF7B4
:1041A00098FF0020FDF795FF9320FDF792FF002078
:1041B000FDF78FFFA220FDF78CFF0020FDF789FFA0
:1041C000B320FDF786FF0020FDF783FFBE20FDF73B
:1041D00080FF0020FDF77DFFC420FDF77AFF00205F
:1041E000FDF777FFCD20FDF774FF0020FDF771FF8D
:1041F000D320FDF76EFF0020FDF76BFFDC20FDF7FD
:1042000068FF0020FDF765FFF320FDF762FF002047
:10421000FDF75FFFE620FDF753FF1120FDF759FF83
:104220000020FDF756FF3420FDF753FF0020FDF777
:1042300050FF5620FDF74DFF0020FDF74AFF762086
:10424000FDF747FF0020FDF744FF7720FDF741FF12
:104250000020FDF73EFF6620FDF73BFF0020FDF745
:1042600038FF8820FDF735FF0020FDF732FF992049
:10427000FDF72FFF0020FDF72CFFBB20FDF729FFE6
:104280000020FDF726FF9920FDF723FF0020FDF712
:1042900020FF6620FDF71DFF0020FDF71AFF5520C7
:1042A000FDF717FF0020FDF714FF5520FDF711FF64
:1042B0000020FDF70EFF4520FDF70BFF0020FDF766
:1042C00008FF4320FDF705FF0020FDF702FF442013
:1042D000FDF7FFFE0020FDF7FCFEE720FDF7F0FEF6
:1042E0003220FDF7F6FE0020FDF7F3FE5520FDF726
:1042F000F0FE0020FDF7EDFE7620FDF7EAFE00203F
:10430000FDF7E7FE6620FDF7E4FE0020FDF7E1FE85
:104310006720FDF7DEFE0020FDF7DBFE6720FDF7DE
:10432000D8FE0020FDF7D5FE8720FDF7D2FE002045
:10433000FDF7CFFE9920FDF7CCFE0020FDF7C9FE6A
:10434000BB20FDF7C6FE0020FDF7C3FE9920FDF758
:10435000C0FE0020FDF7BDFE7720FDF7BAFE00206D
:10436000FDF7B7FE4420FDF7B4FE0020FDF7B1FED7
:104370005620FDF7AEFE0020FDF7ABFE2320FDF733
:10438000A8FE0020FDF7A5FE3320FDF7A2FE0020C9
:10439000FDF79FFE4520FDF79CFE0020FDF799FEEE
:1043A000E820FDF78DFE0020FDF793FE0020FDF7CD
:1043B00090FE9920FDF78DFE0020FDF78AFE8720F4
:1043C000FDF787FE0020FDF784FE8820FDF781FEC3
:1043D0000020FDF77EFE7720FDF77BFE0020FDF735
:1043E00078FE6620FDF775FE0020FDF772FE88203E
:1043F000FDF76FFE0020FDF76CFEAA20FDF769FEB9
:104400000020FDF766FEBB20FDF763FE0020FDF7F0
:1044100060FE9920FDF75DFE0020FDF75AFE662044
:10442000FDF757FE0020FDF754FE5520FDF751FE25
:104430000020FDF74EFE5520FDF74BFE0020FDF756
:1044400048FE4420FDF745FE0020FDF742FE4420D3
:10445000FDF73FFE0020FDF73CFE5520FDF739FE3D
:104460000020FDF736FEE920FDF72AFEAA20FDF721
:1044700030FE0020FDF72DFE0020FDF72AFE002073
:10448000FDF727FE0020FDF71BFEAA20FDF721FE09
:10449000CF20FDF715FE0020FDF71BFE0020FDF7E5
:1044A00018FE0020FDF715FE0020FDF712FE00208B
:1044B000FDF70FFE0020FDF70CFE0020FDF709FEC2
:1044C0000020FDF706FE0020FDF703FE0020FDF7AB
:1044D00000FE0020FDF7FDFD0020FDF7FAFD0020A5
:1044E000FDF7F7FD0020FDF7F4FD0020FDF7F1FDDD
:1044F0000020FDF7EEFD0020FDF7EBFDF020FDF7BD
:10450000DFFD0020FDF7E5FD5020FDF7E2FD002076
:10451000FDF7DFFD0020FDF7DCFD0020FDF7D9FDF4
:10452000F320FDF7CDFD0020FDF7D3FDF920FDF7C9
:10453000C7FD0620FDF7CDFD1020FDF7CAFD29209F
:10454000FDF7C7FD0020FDF7C4FD3A20FDF7B8FDDB
:104550005520FDF7BEFD1120FDF7B2FD642004F0EB
:104560004DF92920FDF7ACFD3520FDF7A9FD002010
:10457000FDF7AFFD5120FDF7A3FDFF20FDF7A9FDDD
:104580005320FDF79DFD2C20FDF7A3FD5520FDF7E1
:1045900097FD8220FDF79DFD2C20FDF791FD02F097
:1045A000E9B8FE48808845F2105188427ED15521F5
:1045B0004FF47040FDF79FFDAA214FF20100FDF777
:1045C0009AFD52214FF20200FDF795FD08214FF2AE
:1045D0000300FDF790FD01214FF20400FDF78BFD74
:1045E0000D214FF43040FDF786FD0D214BF2010007
:1045F000FDF781FD0D214BF20200FDF77CFD34211A
:104600004FF43640FDF777FD34214BF20160FDF7A2
:1046100072FD34214BF20260FDF76DFD0D214FF468
:104620003140FDF768FD0D214BF20110FDF763FDF0
:104630000D214BF20210FDF75EFD34214FF437409F
:10464000FDF759FD34214BF20170FDF754FD342183
:104650004BF20270FDF74FFD00214FF43240FDF7A1
:104660004AFD00214BF20120FDF745FD00214BF2F0
:104670000220FDF740FD24214FF43840FDF73BFDBB
:1046800024214BF60100FDF736FD24214BF60200F4
:10469000FDF731FD01214FF43F40FDF72CFD0F21C7
:1046A0004FF43340FDF727FD0F2100E0FEE34BF20E
:1046B0000130FDF720FD0F214BF20230FDF71BFD0D
:1046C00034214FF43940FDF716FD34214BF601102B
:1046D000FDF711FD34214BF60210FDF70CFD08210A
:1046E0004FF43540FDF707FD08214BF20150FDF76F
:1046F00002FD08214BF20250FDF7FDFC03214FF4AF
:104700004240FDF7F8FC24214FF43A40FDF7F3FC5A
:1047100024214BF60120FDF7EEFC24214BF602206C
:10472000FDF7E9FC00214FF43C40FDF7E4FC782163
:104730004BF60140FDF7DFFC00214BF60240FDF790
:10474000DAFC00214FF43D40FDF7D5FC78214BF613
:104750000150FDF7D0FC00214BF60250FDF7CBFCD9
:1047600000214FF43E40FDF7C6FC64214BF601608A
:10477000FDF7C1FC00214FF45140FDF7BCFC332193
:104780004DF20110FDF7B7FC00214DF20210FDF7CC
:10479000B2FC34214DF20310FDF7ADFC00214DF2C7
:1047A0000410FDF7A8FC3A214DF20510FDF7A3FC1B
:1047B00000214DF20610FDF79EFC4A214DF2071034
:1047C000FDF799FC00214DF20810FDF794FC5C21E7
:1047D0004DF20910FDF78FFC00214DF20A10FDF794
:1047E0008AFC81214DF20B10FDF785FC00214DF272
:1047F0000C10FDF780FCA6214DF20D10FDF77BFC9F
:1048000000214DF20E10FDF776FCE5214DF20F1060
:10481000FDF771FC01214DF21010FDF76CFC132126
:104820004DF21110FDF767FC01214DF21210FDF75A
:1048300062FC54214DF21310FDF75DFC01214DF295
:104840001410FDF758FC82214DF21510FDF753FCB2
:1048500001214DF21610FDF74EFCCA214DF2171042
:10486000FDF749FC02214DF21810FDF744FC002130
:104870004DF21910FDF73FFC02214DF21A10FDF721
:104880003AFC01214DF21B10FDF735FC02214DF2DF
:104890001C10FDF730FC34214DF21D10FDF72BFCF0
:1048A00002214DF21E10FDF726FC67214DF21F106C
:1048B000FDF721FC02214DF22010FDF71CFC8421A4
:1048C0004DF22110FDF717FC02214DF22210FDF7E9
:1048D00012FCA4214DF22310FDF70DFC02214DF234
:1048E0002410FDF708FCB7214DF22510FDF703FC5D
:1048F00002214DF22610FDF7FEFBCF214DF22710CD
:10490000FDF7F9FB02214DF22810FDF7F4FBDE2143
:104910004DF22910FDF7EFFB02214DF22A10FDF7B1
:10492000EAFBF2214DF22B10FDF7E5FB02214DF2DF
:104930002C10FDF7E0FBFE214DF22D10FDF7DBFB07
:1049400003214DF22E10FDF7D6FB10214DF22F1052
:10495000FDF7D1FB03214DF23010FDF7CCFB3321E5
:104960004DF23110FDF7C7FB03214DF23210FDF778
:10497000C2FB6D214DF23310FDF7BDFB00214FF45A
:104980005240FDF7B8FB33214DF20120FDF7B3FB98
:1049900000214DF20220FDF7AEFB01E0E80000200F
:1049A00034214DF20320FDF7A6FB00214DF2042037
:1049B000FDF7A1FB3A214DF20520FDF79CFB0021FC
:1049C0004DF20620FDF797FB4A214DF20720FDF737
:1049D00092FB00214DF20820FDF78DFB5C214DF28A
:1049E0000920FDF788FB00214DF20A20FDF783FB2B
:1049F00081214DF20B20FDF77EFB00214DF20C20B2
:104A0000FDF779FBA6214DF20D20FDF774FB002187
:104A10004DF20E20FDF76FFBE5214DF20F20FDF763
:104A20006AFB01214DF21020FDF765FB13214DF2C9
:104A30001120FDF760FB01214DF21220FDF75BFB19
:104A400054214DF21320FDF756FB01214DF21420A5
:104A5000FDF751FB82214DF21520FDF74CFB0121A2
:104A60004DF21620FDF747FBCA214DF21720FDF746
:104A700042FB02214DF21820FDF73DFB00214DF2D3
:104A80001920FDF738FB02214DF21A20FDF733FB08
:104A900001214DF21B20FDF72EFB02214DF21C20BF
:104AA000FDF729FB34214DF21D20FDF724FB0221E7
:104AB0004DF21E20FDF71FFB67214DF21F20FDF771
:104AC0001AFB02214DF22020FDF715FB84214DF247
:104AD0002120FDF710FB02214DF22220FDF70BFBF8
:104AE000A4214DF22320FDF706FB02214DF22420E4
:104AF000FDF701FBB7214DF22520FDF7FCFA02215D
:104B00004DF22620FDF7F7FACF214DF22720FDF7D1
:104B1000F2FA02214DF22820FDF7EDFADE214DF2E6
:104B20002920FDF7E8FA02214DF22A20FDF7E3FAE9
:104B3000F2214DF22B20FDF7DEFA02214DF22C205E
:104B4000FDF7D9FAFE214DF22D20FDF7D4FA03210D
:104B50004DF22E20FDF7CFFA10214DF22F20FDF758
:104B6000CAFA03214DF23020FDF7C5FA33214DF288
:104B70003120FDF7C0FA03214DF23220FDF7BBFAD8
:104B80006D214DF23320FDF7B6FA00214FF453406A
:104B9000FDF7B1FA33214DF20130FDF7ACFA0021F7
:104BA0004DF20230FDF7A7FA34214DF20330FDF744
:104BB000A2FA00214DF20430FDF79DFA3A214DF2A0
:104BC0000530FDF798FA00214DF20630FDF793FA13
:104BD0004A214DF20730FDF78EFA00214DF20830E0
:104BE000FDF789FA5C214DF20930FDF784FA0021C6
:104BF0004DF20A30FDF77FFA81214DF20B30FDF7BF
:104C00007AFA00214DF20C30FDF775FAA6214DF22B
:104C10000D30FDF770FA00214DF20E30FDF76BFA02
:104C2000E5214DF20F30FDF766FA01214DF210300B
:104C3000FDF761FA13214DF21130FDF75CFA012105
:104C40004DF21230FDF757FA54214DF21330FDF7B3
:104C500052FA01214DF21430FDF74DFA82214DF246
:104C60001530FDF748FA01214DF21630FDF743FAF1
:104C7000CA214DF21730FDF73EFA02214DF21830ED
:104C8000FDF739FA00214DF21930FDF734FA02210F
:104C90004DF21A30FDF72FFA01214DF21B30FDF7CE
:104CA0002AFA02214DF21C30FDF725FA34214DF28B
:104CB0001D30FDF720FA02214DF21E30FDF71BFAE0
:104CC00067214DF21F30FDF716FA02214DF2203018
:104CD000FDF711FA84214DF22130FDF70CFA022183
:104CE0004DF22230FDF707FAA4214DF22330FDF7F3
:104CF00002FA02214DF22430FDF7FDF9B7214DF201
:104D00002530FDF7F8F902214DF22630FDF7F3F9D1
:104D1000CF214DF22730FDF7EEF902214DF2283078
:104D2000FDF7E9F9DE214DF22930FDF7E4F9022122
:104D30004DF22A30FDF7DFF9F2214DF22B30FDF76D
:104D4000DAF902214DF22C30FDF7D5F9FE214DF2B2
:104D50002D30FDF7D0F903214DF22E30FDF7CBF9C0
:104D600010214DF22F30FDF7C6F903214DF23030FE
:104D7000FDF7C1F933214DF23130FDF7BCF90321C4
:104D80004DF23230FDF7B7F96D214DF23330FDF7BA
:104D9000B2F900214FF45440FDF7ADF933214DF243
:104DA0000140FDF7A8F900214DF20240FDF7A3F9FB
:104DB00034214DF20340FDF79EF900214DF20440ED
:104DC000FDF799F93A214DF20540FDF794F90021DC
:104DD0004DF20640FDF78FF94A214DF20740FDF7ED
:104DE0008AF900214DF20840FDF785F95C214DF26A
:104DF0000940FDF780F900214DF20A40FDF77BF9EB
:104E000081214DF20B40FDF776F900214DF20C4067
:104E1000FDF771F9A6214DF20D40FDF76CF9002167
:104E20004DF20E40FDF767F9E5214DF20F40FDF719
:104E300062F901214DF21040FDF75DF913214DF2A9
:104E40001140FDF758F901214DF21240FDF753F9D9
:104E500054214DF21340FDF74EF901214DF214405B
:104E6000FDF749F982214DF21540FDF744F9012182
:104E70004DF21640FDF73FF9CA214DF21740FDF7FC
:104E80003AF902214DF21840FDF735F900214DF2B3
:104E90001940FDF730F902214DF21A40FDF72BF9C8
:104EA00001214DF21B40FDF726F900E004E3022149
:104EB0004DF21C40FDF71FF934214DF21D40FDF766
:104EC0001AF902214DF21E40FDF715F967214DF246
:104ED0001F40FDF710F902214DF22040FDF70BF9BC
:104EE00084214DF22140FDF706F902214DF22240C6
:104EF000FDF701F9A4214DF22340FDF7FCF8022152
:104F00004DF22440FDF7F7F8B7214DF22540FDF7AB
:104F1000F2F802214DF22640FDF7EDF8CF214DF2D7
:104F20002740FDF7E8F802214DF22840FDF7E3F8AD
:104F3000DE214DF22940FDF7DEF802214DF22A4034
:104F4000FDF7D9F8F2214DF22B40FDF7D4F80221FC
:104F50004DF22C40FDF7CFF8FE214DF22D40FDF72C
:104F6000CAF803214DF22E40FDF7C5F810214DF28D
:104F70002F40FDF7C0F803214DF23040FDF7BBF89C
:104F800033214DF23140FDF7B6F803214DF23240A6
:104F9000FDF7B1F86D214DF23340FDF7ACF800217B
:104FA0004FF45540FDF7A7F833214DF20150FDF7BE
:104FB000A2F800214DF20250FDF79DF834214DF288
:104FC0000350FDF798F800214DF20450FDF793F8D7
:104FD0003A214DF20550FDF78EF800214DF20650B2
:104FE000FDF789F84A214DF20750FDF784F80021BA
:104FF0004DF20850FDF77FF85C214DF20950FDF7A6
:105000007AF800214DF20A50FDF775F881214DF232
:105010000B50FDF770F800214DF20C50FDF76BF8C6
:10502000A6214DF20D50FDF766F800214DF20E500D
:10503000FDF761F8E5214DF20F50FDF75CF8012115
:105040004DF21050FDF757F813214DF21150FDF7B6
:1050500052F801214DF21250FDF74DF854214DF256
:105060001350FDF748F801214DF21450FDF743F8B5
:1050700082214DF21550FDF73EF801214DF21650F8
:10508000FDF739F8CA214DF21750FDF734F8022127
:105090004DF21850FDF72FF800214DF21950FDF791
:1050A0002AF802214DF21A50FDF725F801214DF2A0
:1050B0001B50FDF720F802214DF21C50FDF71BF8A4
:1050C00034214DF21D50FDF716F802214DF21E500D
:1050D000FDF711F867214DF21F50FDF70CF8022182
:1050E0004DF22050FDF707F884214DF22150FDF7D5
:1050F00002F802214DF22250FCF7FDFFA4214DF2EF
:105100002350FCF7F8FF02214DF22450FCF7F3FF87
:10511000B7214DF22550FCF7EEFF02214DF226504B
:10512000FCF7E9FFCF214DF22750FCF7E4FF022105
:105130004DF22850FCF7DFFFDE214DF22950FCF73D
:10514000DAFF02214DF22A50FCF7D5FFF2214DF291
:105150002B50FCF7D0FF02214DF22C50FCF7CBFF77
:10516000FE214DF22D50FCF7C6FF03214DF22E50CB
:10517000FCF7C1FF10214DF22F50FCF7BCFF0321BB
:105180004DF23050FCF7B7FF33214DF23150FCF7B0
:10519000B2FF03214DF23250FCF7ADFF6D214DF20D
:1051A0003350FCF7A8FF00214FF45640FCF7A3FF53
:1051B00033214DF20160FCF79EFF00214DF20260A9
:1051C000FCF799FF34214DF20360FCF794FF0021B6
:1051D0004DF20460FCF78FFF3A214DF20560FCF7B9
:1051E0008AFF00214DF20660FCF785FF4A214DF24F
:1051F0000760FCF780FF00214DF20860FCF77BFFA1
:105200005C214DF20960FCF776FF00214DF20A6047
:10521000FCF771FF81214DF20B60FCF76CFF002160
:105220004DF20C60FCF767FFA6214DF20D60FCF714
:1052300062FF00214DF20E60FCF75DFFE5214DF2AB
:105240000F60FCF758FF01214DF21060FCF753FF8F
:1052500013214DF21160FCF74EFF01214DF2126057
:10526000FCF749FF54214DF21360FCF744FF012184
:105270004DF21460FCF73FFF82214DF21560FCF700
:105280003AFF01214DF21660FCF735FFCA214DF2BD
:105290001760FCF730FF02214DF21860FCF72BFF7E
:1052A00000214DF21960FCF726FF02214DF21A6031
:1052B000FCF721FF01214DF21B60FCF71CFF0221CE
:1052C0004DF21C60FCF717FF34214DF21D60FCF716
:1052D00012FF02214DF21E60FCF70DFF67214DF217
:1052E0001F60FCF708FF02214DF22060FCF703FF6E
:1052F00084214DF22160FCF7FEFE02214DF2226076
:10530000FCF7F9FEA4214DF22360FCF7F4FE022124
:105310004DF22460FCF7EFFEB7214DF22560FCF75B
:10532000EAFE02214DF22660FCF7E5FECF214DF2A8
:105330002760FCF7E0FE02214DF22860FCF7DBFE5F
:10534000DE214DF22960FCF7D6FE02214DF22A60E3
:10535000FCF7D1FEF2214DF22B60FCF7CCFE0221CE
:105360004DF22C60FCF7C7FEFE214DF22D60FCF7DC
:10537000C2FE03214DF22E60FCF7BDFE10214DF25E
:105380002F60FCF7B8FE03214DF23060FCF7B3FE4E
:1053900033214DF23160FCF7AEFE03214DF2326055
:1053A000FCF7A9FE6D214DF23360FCF7A4FE5521F8
:1053B0004FF47040FCF79FFEAA214FF20100FCF76A
:1053C0009AFE52214FF20200FCF795FE08214FF29F
:1053D0000300FCF790FE00214FF20400FCF78BFE67
:1053E000CC214FF43140FCF786FE00214BF2011036
:1053F000FCF781FE05214FF43640FCF77CFE70215E
:105400004FF43740FCF777FE70214BF20170FCF748
:1054100072FE01214FF43840FCF76DFE03214BF67C
:105420000100FCF768FE03214BF60200FCF763FE67
:1054300003214BF60300FCF75EFE02214FF43C40D3
:10544000FCF759FE00214BF60140FCF754FE002109
:105450004BF60240FCF74FFED0214FF44940FCF7D9
:105460004AFE02214CF60110FCF745FE50214CF695
:105470000210FCF740FE50214CF60310FCF73BFEF7
:1054800050214CF60410FCF736FE00214FF4545026
:10549000FCF731FE55214FF46850FCF72CFE4FF419
:1054A0008850FCF70DFE782003F060F94FF424508B
:1054B000FCF706FE01F05EB9FE48808849F225310E
:1054C00088427DD147F6F001E520FCF714FE4FF449
:1054D00080710120FCF70FFE4FF4E0610220FCF721
:1054E0000AFE41F230010320FCF705FE00210420F2
:1054F000FCF701FE40F202210820FCF7FCFD002130
:105500000920FCF7F8FD00210A20FCF7F4FD00213A
:105510000C20FCF7F0FD00210D20FCF7ECFD002134
:105520000F20FCF7E8FD00211020FCF7E4FD072127
:105530001120FCF7E0FD00211220FCF7DCFD00212A
:105540001320FCF7D8FD00210720FCF7D4FD41F221
:1055500090611020FCF7CFFD40F227211120FCF7CD
:10556000CAFD9D211220FCF7C6FD4FF4C85113203F
:10557000FCF7C1FD25212920FCF7BDFD0D212B20C5
:10558000FCF7B9FD07213020FCF7B5FD40F20331EF
:105590003120FCF7B0FD03213220FCF7ACFD40F2D6
:1055A00006213520FCF7A7FD08213620FCF7A3FDD6
:1055B00040F206413720FCF79EFD4FF4417100E0B8
:1055C00058E03820FCF797FD07213920FCF793FDC0
:1055D00040F202613C20FCF78EFD08213D20FCF7E3
:1055E0008AFD00215020FCF786FDEF215120FCF7B9
:1055F00082FD00215220FCF77EFD40F23F11532036
:10560000FCF779FD4FF427416020FCF774FD012180
:105610006120FCF770FD00216A20FCF76CFD002181
:105620008020FCF768FD00218120FCF764FD00214B
:105630008220FCF760FD00218320FCF75CFD002147
:105640008420FCF758FD00218520FCF754FD102133
:105650009020FCF750FD4FF4C0619220FCF74BFD09
:1056600040F233110720FCF746FD22210020FCF711
:1056700042FD1FE78F48808849F2283188427DD15A
:1056800041F28F01EC20FCF736FD41F23421EF208E
:10569000FCF731FD4FF480710120FCF72CFD4FF435
:1056A000E0610220FCF727FD41F230010320FCF706
:1056B00022FD00210420FCF71EFD40F202210820FB
:1056C000FCF719FD00210920FCF715FD00210A2037
:1056D000FCF711FD01210C20FCF70DFD00210D2030
:1056E000FCF709FD00210F20FCF705FD002110202B
:1056F000FCF701FD07211120FCF7FDFC0021122021
:10570000FCF7F9FC00211320FCF7F5FC0121072030
:10571000FCF7F1FC322003F071F841F290411020C7
:10572000FCF7E9FC40F227211120FCF7E4FC3220D1
:1057300003F064F88A211220FCF7DDFC322003F02C
:105740005DF84FF4D0511320FCF7D5FC0621292039
:10575000FCF7D1FC0D212B20FCF7CDFC322003F00F
:105760004DF800212020FCF7C6FC00212120FCF789
:10577000C2FC322003F042F8002100E075E0302046
:10578000FCF7B9FC40F204613120FCF7B4FC40F2B4
:1057900005313220FCF7AFFC00213520FCF7ABFCD3
:1057A00040F609413620FCF7A6FC4FF40171372082
:1057B000FCF7A1FC40F201313820FCF79CFC40F2E0
:1057C00007713920FCF797FC00213C20FCF793FC83
:1057D00040F60A213D20FCF78EFC322003F00EF843
:1057E00000215020FCF787FCEF215120FCF783FCBF
:1057F00000215220FCF77FFC40F23F115320FCF7C0
:105800007AFC4FF427416020FCF775FC01216120F0
:10581000FCF771FC00216A20FCF76DFC0021802060
:10582000FCF769FC00218120FCF765FC0021822047
:10583000FCF761FC00218320FCF75DFC0021842043
:10584000FCF759FC00218520FCF755FC1021902025
:10585000FCF751FC4FF4C0619220FCF74CFC40F285
:1058600033110720FCF747FC24E61248808849F2F0
:10587000203188427ED100210846FCF73CFC4FF4E1
:1058800080710120FCF737FC4FF4E0610220FCF747
:1058900032FC41F230010320FCF72DFC00210420F2
:1058A000FCF729FC40F202210820FCF724FC00212F
:1058B000092001E0E8000020FCF71DFC00210A207F
:1058C000FCF719FC01210C20FCF715FC00210D2030
:1058D000FCF711FC00210F20FCF70DFC322002F038
:1058E0008DFF40F201110720FCF705FC322002F089
:1058F00085FF4FF486511020FCF7FDFB0721112096
:10590000FCF7F9FB4FF488711220FCF7F4FB4FF41D
:1059100030611320FCF7EFFB00212920FCF7EBFBA3
:1059200044F210012B20FCF7E6FB00215020FCF78D
:10593000E2FBEF215120FCF7DEFB00215220FCF7B7
:10594000DAFB40F23F115320FCF7D5FB4FF41C511A
:105950006020FCF7D0FB01216120FCF7CCFB00218B
:105960006A20FCF7C8FB00218020FCF7C4FB002163
:10597000812000E030E0FCF7BEFB00218220FCF734
:10598000BAFB00218320FCF7B6FB00218420FCF742
:10599000B2FB00218520FCF7AEFB10219020FCF724
:1059A000AAFB00219220FCF7A6FB01219320FCF723
:1059B000A2FB4FF488719520FCF79DFB00219720F6
:1059C000FCF799FB00219820FCF795FB40F273113E
:1059D0000720FCF790FB6DE5FE48808849F23131E5
:1059E00088427DD141F21401E720FCF784FB4FF49B
:1059F00080710120FCF77FFB4FF400710220FCF75F
:105A00007AFB41F238010320FCF775FB40F20221DA
:105A10000820FCF770FB00210920FCF76CFB00213B
:105A20000A20FCF768FB00210C20FCF764FB002136
:105A30000D20FCF760FB00210F20FCF75CFB002130
:105A40001020FCF758FB07211120FCF754FB002124
:105A50001220FCF750FB00211320FCF74CFBC82060
:105A600002F0CCFE41F290611020FCF744FB40F2C2
:105A700027211120FCF73FFB322002F0BFFE0C2152
:105A80001220FCF738FB322002F0B8FE4FF4006120
:105A90001320FCF730FB11212920FCF72CFB0B21F4
:105AA0002B20FCF728FB322002F0A8FE002120204A
:105AB000FCF721FB40F23F112120FCF71CFB0021E9
:105AC0003020FCF718FB4FF483713120FCF713FBF7
:105AD00000213220FCF70FFB4FF40171352000E06C
